{
  "contractName": "Doctors",
  "abi": [
    {
      "inputs": [],
      "payable": false,
      "stateMutability": "nonpayable",
      "type": "constructor"
    },
    {
      "anonymous": false,
      "inputs": [
        {
          "indexed": false,
          "internalType": "uint256",
          "name": "doctorID",
          "type": "uint256"
        },
        {
          "indexed": false,
          "internalType": "string",
          "name": "name",
          "type": "string"
        },
        {
          "indexed": false,
          "internalType": "string",
          "name": "specialistType",
          "type": "string"
        },
        {
          "indexed": false,
          "internalType": "string",
          "name": "phone",
          "type": "string"
        },
        {
          "indexed": false,
          "internalType": "string",
          "name": "email",
          "type": "string"
        },
        {
          "indexed": false,
          "internalType": "string",
          "name": "addr",
          "type": "string"
        }
      ],
      "name": "DoctorCreated",
      "type": "event"
    },
    {
      "constant": true,
      "inputs": [],
      "name": "DoctorCount",
      "outputs": [
        {
          "internalType": "uint256",
          "name": "",
          "type": "uint256"
        }
      ],
      "payable": false,
      "stateMutability": "view",
      "type": "function"
    },
    {
      "constant": true,
      "inputs": [
        {
          "internalType": "uint256",
          "name": "",
          "type": "uint256"
        }
      ],
      "name": "doctors",
      "outputs": [
        {
          "internalType": "uint256",
          "name": "doctorID",
          "type": "uint256"
        },
        {
          "internalType": "string",
          "name": "name",
          "type": "string"
        },
        {
          "internalType": "string",
          "name": "specialistType",
          "type": "string"
        },
        {
          "internalType": "string",
          "name": "phone",
          "type": "string"
        },
        {
          "internalType": "string",
          "name": "email",
          "type": "string"
        },
        {
          "internalType": "string",
          "name": "addr",
          "type": "string"
        }
      ],
      "payable": false,
      "stateMutability": "view",
      "type": "function"
    },
    {
      "constant": false,
      "inputs": [
        {
          "internalType": "string",
          "name": "_name",
          "type": "string"
        },
        {
          "internalType": "string",
          "name": "_specialistType",
          "type": "string"
        },
        {
          "internalType": "string",
          "name": "_phone",
          "type": "string"
        },
        {
          "internalType": "string",
          "name": "_email",
          "type": "string"
        },
        {
          "internalType": "string",
          "name": "_addr",
          "type": "string"
        }
      ],
      "name": "createDoctor",
      "outputs": [],
      "payable": false,
      "stateMutability": "nonpayable",
      "type": "function"
    }
  ],
  "bytecode": "0x6080604052600080553480156200001557600080fd5b50620000e56040518060400160405280600681526020016553696464686960d01b8152506040518060400160405280600c81526020016b141cde58da1bdb1bd9da5cdd60a21b8152506040518060400160405280600a8152602001690383035343834353336360b41b8152506040518060400160405280601381526020017f73696464686935313140676d61696c2e636f6d000000000000000000000000008152506040518060400160405280600981526020016811da185e9a5858985960ba1b815250620000eb60201b60201c565b620004c5565b6000805460019081018083556040805160c08101825282815260208082018b81528284018b9052606083018a90526080830189905260a0830188905293865284815291909420845181559151805192936200014f9390850192919091019062000420565b50604082015180516200016d91600284019160209091019062000420565b50606082015180516200018b91600384019160209091019062000420565b5060808201518051620001a991600484019160209091019062000420565b5060a08201518051620001c791600584019160209091019062000420565b509050507fef10807f56c3b4f2d472eba8ac4d25bca8d2c584884cbe289323666f74e9dcfb600054868686868660405180878152602001806020018060200180602001806020018060200186810386528b818151815260200191508051906020019080838360005b83811015620002495781810151838201526020016200022f565b50505050905090810190601f168015620002775780820380516001836020036101000a031916815260200191505b5086810385528a5181528a516020918201918c019080838360005b83811015620002ac57818101518382015260200162000292565b50505050905090810190601f168015620002da5780820380516001836020036101000a031916815260200191505b5086810384528951815289516020918201918b019080838360005b838110156200030f578181015183820152602001620002f5565b50505050905090810190601f1680156200033d5780820380516001836020036101000a031916815260200191505b5086810383528851815288516020918201918a019080838360005b838110156200037257818101518382015260200162000358565b50505050905090810190601f168015620003a05780820380516001836020036101000a031916815260200191505b50868103825287518152875160209182019189019080838360005b83811015620003d5578181015183820152602001620003bb565b50505050905090810190601f168015620004035780820380516001836020036101000a031916815260200191505b509b50505050505050505050505060405180910390a15050505050565b828054600181600116156101000203166002900490600052602060002090601f016020900481019282601f106200046357805160ff191683800117855562000493565b8280016001018555821562000493579182015b828111156200049357825182559160200191906001019062000476565b50620004a1929150620004a5565b5090565b620004c291905b80821115620004a15760008155600101620004ac565b90565b610c2880620004d56000396000f3fe608060405234801561001057600080fd5b50600436106100415760003560e01c80636efb1b8414610046578063b84e5f0c1461027a578063def2d2a314610534575b600080fd5b6100636004803603602081101561005c57600080fd5b503561054e565b60405180878152602001806020018060200180602001806020018060200186810386528b818151815260200191508051906020019080838360005b838110156100b657818101518382015260200161009e565b50505050905090810190601f1680156100e35780820380516001836020036101000a031916815260200191505b5086810385528a5181528a516020918201918c019080838360005b838110156101165781810151838201526020016100fe565b50505050905090810190601f1680156101435780820380516001836020036101000a031916815260200191505b5086810384528951815289516020918201918b019080838360005b8381101561017657818101518382015260200161015e565b50505050905090810190601f1680156101a35780820380516001836020036101000a031916815260200191505b5086810383528851815288516020918201918a019080838360005b838110156101d65781810151838201526020016101be565b50505050905090810190601f1680156102035780820380516001836020036101000a031916815260200191505b50868103825287518152875160209182019189019080838360005b8381101561023657818101518382015260200161021e565b50505050905090810190601f1680156102635780820380516001836020036101000a031916815260200191505b509b50505050505050505050505060405180910390f35b610532600480360360a081101561029057600080fd5b810190602081018135600160201b8111156102aa57600080fd5b8201836020820111156102bc57600080fd5b803590602001918460018302840111600160201b831117156102dd57600080fd5b91908080601f0160208091040260200160405190810160405280939291908181526020018383808284376000920191909152509295949360208101935035915050600160201b81111561032f57600080fd5b82018360208201111561034157600080fd5b803590602001918460018302840111600160201b8311171561036257600080fd5b91908080601f0160208091040260200160405190810160405280939291908181526020018383808284376000920191909152509295949360208101935035915050600160201b8111156103b457600080fd5b8201836020820111156103c657600080fd5b803590602001918460018302840111600160201b831117156103e757600080fd5b91908080601f0160208091040260200160405190810160405280939291908181526020018383808284376000920191909152509295949360208101935035915050600160201b81111561043957600080fd5b82018360208201111561044b57600080fd5b803590602001918460018302840111600160201b8311171561046c57600080fd5b91908080601f0160208091040260200160405190810160405280939291908181526020018383808284376000920191909152509295949360208101935035915050600160201b8111156104be57600080fd5b8201836020820111156104d057600080fd5b803590602001918460018302840111600160201b831117156104f157600080fd5b91908080601f016020809104026020016040519081016040528093929190818152602001838380828437600092019190915250929550610836945050505050565b005b61053c610b52565b60408051918252519081900360200190f35b600160208181526000928352604092839020805481840180548651600296821615610100026000190190911695909504601f810185900485028601850190965285855290949193929091908301828280156105ea5780601f106105bf576101008083540402835291602001916105ea565b820191906000526020600020905b8154815290600101906020018083116105cd57829003601f168201915b50505060028085018054604080516020601f600019610100600187161502019094169590950492830185900485028101850190915281815295969594509092509083018282801561067c5780601f106106515761010080835404028352916020019161067c565b820191906000526020600020905b81548152906001019060200180831161065f57829003601f168201915b5050505060038301805460408051602060026001851615610100026000190190941693909304601f810184900484028201840190925281815294959493509083018282801561070c5780601f106106e15761010080835404028352916020019161070c565b820191906000526020600020905b8154815290600101906020018083116106ef57829003601f168201915b5050505060048301805460408051602060026001851615610100026000190190941693909304601f810184900484028201840190925281815294959493509083018282801561079c5780601f106107715761010080835404028352916020019161079c565b820191906000526020600020905b81548152906001019060200180831161077f57829003601f168201915b5050505060058301805460408051602060026001851615610100026000190190941693909304601f810184900484028201840190925281815294959493509083018282801561082c5780601f106108015761010080835404028352916020019161082c565b820191906000526020600020905b81548152906001019060200180831161080f57829003601f168201915b5050505050905086565b6000805460019081018083556040805160c08101825282815260208082018b81528284018b9052606083018a90526080830189905260a08301889052938652848152919094208451815591518051929361089893908501929190910190610b58565b50604082015180516108b4916002840191602090910190610b58565b50606082015180516108d0916003840191602090910190610b58565b50608082015180516108ec916004840191602090910190610b58565b5060a08201518051610908916005840191602090910190610b58565b509050507fef10807f56c3b4f2d472eba8ac4d25bca8d2c584884cbe289323666f74e9dcfb600054868686868660405180878152602001806020018060200180602001806020018060200186810386528b818151815260200191508051906020019080838360005b83811015610988578181015183820152602001610970565b50505050905090810190601f1680156109b55780820380516001836020036101000a031916815260200191505b5086810385528a5181528a516020918201918c019080838360005b838110156109e85781810151838201526020016109d0565b50505050905090810190601f168015610a155780820380516001836020036101000a031916815260200191505b5086810384528951815289516020918201918b019080838360005b83811015610a48578181015183820152602001610a30565b50505050905090810190601f168015610a755780820380516001836020036101000a031916815260200191505b5086810383528851815288516020918201918a019080838360005b83811015610aa8578181015183820152602001610a90565b50505050905090810190601f168015610ad55780820380516001836020036101000a031916815260200191505b50868103825287518152875160209182019189019080838360005b83811015610b08578181015183820152602001610af0565b50505050905090810190601f168015610b355780820380516001836020036101000a031916815260200191505b509b50505050505050505050505060405180910390a15050505050565b60005481565b828054600181600116156101000203166002900490600052602060002090601f016020900481019282601f10610b9957805160ff1916838001178555610bc6565b82800160010185558215610bc6579182015b82811115610bc6578251825591602001919060010190610bab565b50610bd2929150610bd6565b5090565b610bf091905b80821115610bd25760008155600101610bdc565b9056fea265627a7a7231582022e73e015fd479d0ccb8ae5ba1cd41c80cc6f848cfa1308b137446d8109fe0a064736f6c63430005100032",
  "source": "// SPDX-License-Identifier: MIT\r\npragma solidity >=0.4.21 <0.7.0;\r\n\r\ncontract Doctors {\r\n    uint256 public DoctorCount = 0;\r\n    // Patients Model\r\n    struct Doctor {\r\n        uint256 doctorID;\r\n        string name;\r\n        string specialistType;\r\n        string phone;\r\n        string email;\r\n        string addr;\r\n    }\r\n\r\n    mapping(uint256 => Doctor) public doctors;\r\n\r\n    // Broadcasting when an doctor event is created\r\n    event DoctorCreated(\r\n        uint256 doctorID,\r\n        string name,\r\n        string specialistType,\r\n        string phone,\r\n        string email,\r\n        string addr\r\n    );\r\n\r\n    // Constructor which initializes default values\r\n    constructor() public {\r\n        createDoctor(\r\n            \"Siddhi\",\r\n            \"Psychologist\",\r\n            \"8054845360\",\r\n            \"siddhi511@gmail.com\",\r\n            \"Ghaziabad\"\r\n        );\r\n    }\r\n\r\n    // A funnction to create doctors\r\n\r\n    function createDoctor(\r\n        string memory _name,\r\n        string memory _specialistType,\r\n        string memory _phone,\r\n        string memory _email,\r\n        string memory _addr\r\n    ) public {\r\n        DoctorCount++;\r\n        doctors[DoctorCount] = Doctor(\r\n            DoctorCount,\r\n            _name,\r\n            _specialistType,\r\n            _phone,\r\n            _email,\r\n            _addr\r\n        );\r\n        emit DoctorCreated(\r\n            DoctorCount,\r\n            _name,\r\n            _specialistType,\r\n            _phone,\r\n            _email,\r\n            _addr\r\n        );\r\n    }\r\n}\r\n",
  "sourcePath": "C:\\Users\\dell\\Major_Project\\contracts\\Doctors.sol",
  "compiler": {
    "name": "solc",
    "version": "0.5.16+commit.9c3226ce.Emscripten.clang"
  },
  "schemaVersion": "3.4.13",
  "updatedAt": "2023-03-18T13:27:34.796Z",
  "devdoc": {
    "methods": {}
  },
  "userdoc": {
    "methods": {}
  }
}