{
  "contractName": "Reports",
  "abi": [
    {
      "inputs": [],
      "payable": false,
      "stateMutability": "nonpayable",
      "type": "constructor"
    },
    {
      "anonymous": false,
      "inputs": [
        {
          "indexed": false,
          "internalType": "uint256",
          "name": "id",
          "type": "uint256"
        },
        {
          "indexed": false,
          "internalType": "string",
          "name": "reportPdf",
          "type": "string"
        },
        {
          "indexed": false,
          "internalType": "string",
          "name": "reportDesc",
          "type": "string"
        },
        {
          "indexed": false,
          "internalType": "uint256",
          "name": "PrescriptionID",
          "type": "uint256"
        },
        {
          "indexed": false,
          "internalType": "uint256",
          "name": "doctorID",
          "type": "uint256"
        },
        {
          "indexed": false,
          "internalType": "uint256",
          "name": "patientID",
          "type": "uint256"
        }
      ],
      "name": "ReportCreated",
      "type": "event"
    },
    {
      "constant": true,
      "inputs": [],
      "name": "ReportCount",
      "outputs": [
        {
          "internalType": "uint256",
          "name": "",
          "type": "uint256"
        }
      ],
      "payable": false,
      "stateMutability": "view",
      "type": "function"
    },
    {
      "constant": true,
      "inputs": [
        {
          "internalType": "uint256",
          "name": "",
          "type": "uint256"
        }
      ],
      "name": "reports",
      "outputs": [
        {
          "internalType": "uint256",
          "name": "id",
          "type": "uint256"
        },
        {
          "internalType": "string",
          "name": "reportPdf",
          "type": "string"
        },
        {
          "internalType": "string",
          "name": "reportDesc",
          "type": "string"
        },
        {
          "internalType": "uint256",
          "name": "Prescription",
          "type": "uint256"
        },
        {
          "internalType": "uint256",
          "name": "doctorID",
          "type": "uint256"
        },
        {
          "internalType": "uint256",
          "name": "patientID",
          "type": "uint256"
        }
      ],
      "payable": false,
      "stateMutability": "view",
      "type": "function"
    },
    {
      "constant": false,
      "inputs": [
        {
          "internalType": "string",
          "name": "_reportPdf",
          "type": "string"
        },
        {
          "internalType": "string",
          "name": "_reportDesc",
          "type": "string"
        },
        {
          "internalType": "uint256",
          "name": "_PrescriptionID",
          "type": "uint256"
        },
        {
          "internalType": "uint256",
          "name": "_doctorID",
          "type": "uint256"
        },
        {
          "internalType": "uint256",
          "name": "_patientID",
          "type": "uint256"
        }
      ],
      "name": "createReport",
      "outputs": [],
      "payable": false,
      "stateMutability": "nonpayable",
      "type": "function"
    }
  ],
  "bytecode": "0x60806040526000805534801561001457600080fd5b506100816040518060400160405280600a8152602001690e4cae0dee4e89082a6960b31b8152506040518060400160405280601a81526020017f536f6d654465736372697074696f6e41626f75745265706f7274000000000000815250600180600161008660201b60201c565b6102ea565b6000805460019081018083556040805160c08101825282815260208082018b81528284018b9052606083018a90526080830189905260a0830188905293865284815291909420845181559151805192936100e89390850192919091019061024f565b506040820151805161010491600284019160209091019061024f565b50606082015181600301556080820151816004015560a082015181600501559050507fa20fc798758067c0c426bc47fc4f14b312497c8884d9e2f6af2bc92e15512a396000548686868686604051808781526020018060200180602001868152602001858152602001848152602001838103835288818151815260200191508051906020019080838360005b838110156101a8578181015183820152602001610190565b50505050905090810190601f1680156101d55780820380516001836020036101000a031916815260200191505b50838103825287518152875160209182019189019080838360005b838110156102085781810151838201526020016101f0565b50505050905090810190601f1680156102355780820380516001836020036101000a031916815260200191505b509850505050505050505060405180910390a15050505050565b828054600181600116156101000203166002900490600052602060002090601f016020900481019282601f1061029057805160ff19168380011785556102bd565b828001600101855582156102bd579182015b828111156102bd5782518255916020019190600101906102a2565b506102c99291506102cd565b5090565b6102e791905b808211156102c957600081556001016102d3565b90565b61069a806102f96000396000f3fe608060405234801561001057600080fd5b50600436106100415760003560e01c8063269a71421461004657806379f931d614610180578063c942adf71461019a575b600080fd5b61017e600480360360a081101561005c57600080fd5b81019060208101813564010000000081111561007757600080fd5b82018360208201111561008957600080fd5b803590602001918460018302840111640100000000831117156100ab57600080fd5b91908080601f01602080910402602001604051908101604052809392919081815260200183838082843760009201919091525092959493602081019350359150506401000000008111156100fe57600080fd5b82018360208201111561011057600080fd5b8035906020019184600183028401116401000000008311171561013257600080fd5b91908080601f01602080910402602001604051908101604052809392919081815260200183838082843760009201919091525092955050823593505050602081013590604001356102b1565b005b61018861047a565b60408051918252519081900360200190f35b6101b7600480360360208110156101b057600080fd5b5035610480565b604051808781526020018060200180602001868152602001858152602001848152602001838103835288818151815260200191508051906020019080838360005b838110156102105781810151838201526020016101f8565b50505050905090810190601f16801561023d5780820380516001836020036101000a031916815260200191505b50838103825287518152875160209182019189019080838360005b83811015610270578181015183820152602001610258565b50505050905090810190601f16801561029d5780820380516001836020036101000a031916815260200191505b509850505050505050505060405180910390f35b6000805460019081018083556040805160c08101825282815260208082018b81528284018b9052606083018a90526080830189905260a083018890529386528481529190942084518155915180519293610313939085019291909101906105ca565b506040820151805161032f9160028401916020909101906105ca565b50606082015181600301556080820151816004015560a082015181600501559050507fa20fc798758067c0c426bc47fc4f14b312497c8884d9e2f6af2bc92e15512a396000548686868686604051808781526020018060200180602001868152602001858152602001848152602001838103835288818151815260200191508051906020019080838360005b838110156103d35781810151838201526020016103bb565b50505050905090810190601f1680156104005780820380516001836020036101000a031916815260200191505b50838103825287518152875160209182019189019080838360005b8381101561043357818101518382015260200161041b565b50505050905090810190601f1680156104605780820380516001836020036101000a031916815260200191505b509850505050505050505060405180910390a15050505050565b60005481565b600160208181526000928352604092839020805481840180548651600296821615610100026000190190911695909504601f8101859004850286018501909652858552909491939290919083018282801561051c5780601f106104f15761010080835404028352916020019161051c565b820191906000526020600020905b8154815290600101906020018083116104ff57829003601f168201915b50505060028085018054604080516020601f60001961010060018716150201909416959095049283018590048502810185019091528181529596959450909250908301828280156105ae5780601f10610583576101008083540402835291602001916105ae565b820191906000526020600020905b81548152906001019060200180831161059157829003601f168201915b5050505050908060030154908060040154908060050154905086565b828054600181600116156101000203166002900490600052602060002090601f016020900481019282601f1061060b57805160ff1916838001178555610638565b82800160010185558215610638579182015b8281111561063857825182559160200191906001019061061d565b50610644929150610648565b5090565b61066291905b80821115610644576000815560010161064e565b9056fea265627a7a72315820d29566d35a5c823236ab7e37f09be209bacdbad6540565b1e8c34283498b164b64736f6c63430005100032",
  "source": "// SPDX-License-Identifier: MIT\r\npragma solidity >=0.4.21 <0.7.0;\r\n\r\ncontract Reports {\r\n    uint256 public ReportCount = 0;\r\n    // Patients Model\r\n    struct Report {\r\n        uint256 id;\r\n        string reportPdf;\r\n        string reportDesc;\r\n        uint256 Prescription;\r\n        uint256 doctorID;\r\n        uint256 patientID;\r\n    }\r\n\r\n    mapping(uint256 => Report) public reports;\r\n\r\n    // Broadcasting when an report event is created\r\n    event ReportCreated(\r\n        uint256 id,\r\n        string reportPdf,\r\n        string reportDesc,\r\n        uint256 PrescriptionID,\r\n        uint256 doctorID,\r\n        uint256 patientID\r\n    );\r\n\r\n    // Constructor which initializes default values\r\n    constructor() public {\r\n        createReport(\"reportHASH\", \"SomeDescriptionAboutReport\", 1, 1, 1);\r\n    }\r\n\r\n    // A funnction to create patients\r\n\r\n    function createReport(\r\n        string memory _reportPdf,\r\n        string memory _reportDesc,\r\n        uint256 _PrescriptionID,\r\n        uint256 _doctorID,\r\n        uint256 _patientID\r\n    ) public {\r\n        ReportCount++;\r\n        reports[ReportCount] = Report(\r\n            ReportCount,\r\n            _reportPdf,\r\n            _reportDesc,\r\n            _PrescriptionID,\r\n            _doctorID,\r\n            _patientID\r\n        );\r\n        emit ReportCreated(\r\n            ReportCount,\r\n            _reportPdf,\r\n            _reportDesc,\r\n            _PrescriptionID,\r\n            _doctorID,\r\n            _patientID\r\n        );\r\n    }\r\n}\r\n",
  "sourcePath": "C:\\Users\\dell\\Major_Project\\contracts\\Reports.sol",
  "compiler": {
    "name": "solc",
    "version": "0.5.16+commit.9c3226ce.Emscripten.clang"
  },
  "schemaVersion": "3.4.13",
  "updatedAt": "2023-03-18T13:27:34.814Z",
  "devdoc": {
    "methods": {}
  },
  "userdoc": {
    "methods": {}
  }
}